:020000002628B0
:10000800803120007F08F1000B1D16280430950070
:100018000B110130A4020030A53B25082404031964
:100028000C10D12798270B1C22282700931E1F2865
:100038002000AA01AA0A270093010B1071082000CA
:10004800FF0009002728FA01FB0120308400003056
:1000580085002A30D121A7308400873085006030A0
:100068008600003087000E30D7212000E2292000CA
:10007800D8005508D6005608D9005908083E860009
:10008800870181015908113E8600870181013A30B4
:10009800D6005608D20059080E3ED7005708D3009C
:1000A8005808860087010108B32401302000D600D3
:1000B8005608D8073A30D6005608D20059080B3EE1
:1000C800D7005708D3005808860087010108B324D1
:1000D80001302000D6005608D8072030D600560830
:1000E800D2005908083ED7005708D30058088600A0
:1000F80087010108B32401302000D6005608D8072C
:10010800D2015908063ED6005608D3005808860082
:1001180087010108B32401302000D6005608D8070B
:100128000130D6005608D807D2015908043ED60037
:100138005608D3005808860087010108B324013007
:100148002000D6005608D8073030D6005608D2000E
:100158005908013ED7005708D30058088600870180
:100168000108B32432302000D600590886008701E0
:100178005608810008002000D8008827C32751307E
:10018800F4000030F5000030F6000030F700F725E5
:1001980075082000DA01DA077408D901D9075A0866
:1001A80059040319D928DD2108000130642751308A
:1001B800F4000030F5000130F6000030F700D725D4
:1001C80075082000DA01DA077408D901D9075A0836
:1001D80059040319F128DD2108000030F40000302B
:1001E800F50011272000D5005508D6000130F4008D
:1001F8000030F50011272000D5005508D700D71F7B
:100208003A295130F4000030F5000030F600003093
:10021800F700D725003064272030642711302000EC
:10022800D5005508AC002C08642720005808B725CD
:1002380080306427803064278030642780306427CA
:100248008330642700306427003064275130F4007D
:100258000030F5000030F6000030F700D7250030F8
:10026800642700306427DD21C327080020005608D2
:10027800D5005508AC00DD2108002000AB012000A6
:100288000C08CE232000AB08031D4C291726802913
:1002980020002B080319582907302B020318582966
:1002A8002B08FF3ED822802920002B08073A031D7F
:1002B8005F297025802920002B08083A031D66292C
:1002C80017258029093020002B02031C73290B30C5
:1002D8002B02031873292B08F73E3A2380292000A4
:1002E8002B080B3A031D7A29A126802920002B0808
:1002F8000C3A031D8029342620002A0803199B295B
:10030800AA016D08DE00DF015E08F2005F08F30055
:100318001F30F4000030F500512673082000A501B5
:10032800A5077208A401A4070C14E52620000730CD
:1003380020002302453003192202031CAD298C0139
:10034800DF27630020000C08CE232000A201A301B0
:10035800AB010C1CB129A201A3018230DF00DD3002
:10036800DE00DE0BB529DF0BB529BA2943292000A9
:10037800D6005408D5005508CE00560851270D3030
:1003880095250800F300730824001405F2001608E8
:100398001F39720403190800C7296400800101315C
:1003A800890BD2290034FE0012001E00FE0BD8294A
:1003B80000340530C62124001615080043244121C5
:0803C80026280C3095250800E1
:1004000000347F347F343F343F3407341F344E345C
:1004100000346334063400340334023405344E347B
:1004200001340C34053400340534033403344E34C1
:1004300001341F34033400340734043402344834A4
:10044000003417340234093401340534013448349B
:1004500000343B3401340934043406340034483465
:1004600000343B34003409340734003400340134A0
:10047000173401340A34003400343B340434073474
:10048000003441344C34413452344D343F34003420
:10049000543449344D3445343F34003444344134C9
:1004A000543445343F34003441344C3441345234B4
:1004B0004D340034483465346C346C346F3400345B
:1004C00050344F344E343F3400344F344E342034A3
:1004D00000344F3446344634003450344F344E34B4
:1004E00000342000CE005130F4000030F500003020
:1004F000F6000030F700F72575082000CD01CD0784
:100500007408CC01CC074D084C04031DD62A0230D8
:1005100064275130F4000030F5000130F60000305F
:10052000F700D7252000CF01D0015008803AFF0006
:1005300080307F02031D9E2A06304F020318C92A0D
:1005400020004F08013E82310A008231CA0000308B
:10055000F4000030F500112720004A05892620000C
:10056000CB004E08860087014B0881000130CA008D
:100570004A08CE070130CF070030D03D5008803AFE
:10058000FF0080307F02031DC72A06304F02031C84
:10059000A02A0130F4000030F50011278926200040
:1005A000CA004E08860087014A088100DD21080044
:1005B0002000DC005C08DA000230DA35FF3E031D63
:1005C000DD2A5A35073EDB005B08DD005D08023E90
:1005D00082310A008231DA005A08F2005D08013ED9
:1005E00082310A0082313C272000DB005D08033E97
:1005F00082310A008231413E860087015B0881001A
:100600002F30DA005A08D50041303B2020005D0829
:10061000840082308500003FD4008230D5005D0820
:10062000043E82310A0083312F3ED6000030D700CD
:100630006E2620005D08053E82310A008331F927CD
:1006400020005D08073E82310A008331413E86006A
:1006500087010108DA005A08D0005D08063E8231A1
:100660000A008331B5272000AB08031D0800413084
:10067000092408002000DA000530D8005808F200EC
:100680005A087727373E2000D9005908DB005B085D
:10069000013E82310A008331D8005808F200003050
:1006A0003C272000D9005B0882310A008331483E94
:1006B0008600870159088100FB2641302000D400C4
:1006C0008230D5002F30D6000030D7006E262000B3
:1006D0005B08023E82310A008331F92720005B0863
:1006E000043E82310A008331483E860087010108BA
:1006F000D8005808D0005B08033E82310A008331DD
:10070000B52720002B08073A031D0800483089232D
:1007100008002000D5005130F4000030F500003012
:10072000F6000030F700F725093064272000D301D8
:10073000D4015408803AFF0080307F02031DA22BB1
:10074000023053020318C82B200055088600870189
:100750000108FF3A0319B22B5508860087010108EA
:100760007B24B32B8030642701302000D200520854
:10077000D5070130D3070030D43D5408803AFF003C
:1007800080307F02031DC62B02305302031CA42BB2
:100790008030642780306427E5260800F3007B085A
:1007A000F2007208F400730920006E05F20072086E
:1007B000FB007B087406F2007208F50075087B05E3
:1007C000F2007208A7007B097505F2007208A90003
:1007D000FB08031DF42B29080319F02BA201A30128
:1007E000A801A601FA0108001F302802031C062CEC
:1007F000FA08031D042C7B08F2007208FA007B083B
:10080000F2007208A6000800A6010800A601FA017D
:1008100008002000D7005130F4000030F50000300F
:10082000F6000030F700F72575082000D601D6073E
:100830007408D501D50756085504031D412C003016
:100840006427203064275130F4000030F500003078
:10085000F6000030F700D725023064272000570843
:10086000B7255130F4000030F5000030F6000030BC
:10087000F700D7250030642700306427DD21C32727
:100880000800DD2108006030860000308700A030BD
:100890008400003085000730FF0016001A00FF0BAF
:1008A0004D2C7230210099000730950023008C01F7
:1008B0003E3021008C003E3024008C0020008C0152
:1008C0008B1527001208383892000430200095005C
:1008D0000B118B168B131830EC2744252000CE010A
:1008E000003051275A302000CA008230CB00E52466
:1008F000A030BF2008002000D0005008CA00CB0163
:100900004A08F2004B08F300CD30F4000030F50047
:10091000512673082000CE01CE077208CD01CD0705
:100920004E08CB004D08CA000B30CB36CA0C890BE1
:10093000952C4A08CC004C08D1005108CA0003305D
:10094000CA35890BA02C51354A07CB004B08CF0084
:100950005108CA000430CA35890BAB2C4F03FF3A4B
:1009600050074A0408002000D40054087B24F800F3
:1009700078082000D40052080319C92C5208F80046
:10098000530886008701780881000130F800780854
:10099000D3075408F8000430F836890BCC2C7808BB
:1009A000303EF90053088600870179088100013044
:1009B000F8007808D30754080F39303EF800530880
:1009C000860087017808810008003E30F40000307E
:1009D000F5000030F6000030F700F725750820001C
:1009E000CE01CE077408CD01CD074E084D04031D7E
:1009F000152D4030642720004A0884004B088500EC
:100A0000000800380319152D20004A0884004B08FF
:100A100085000008642701302000CA070030CB3D64
:100A20001130CC00CC0B122DFB2CDD210800F20183
:100A3000F20A00303C272000D8005808AE004130B0
:100A4000D4008230D5002E086B3E86008701010855
:100A5000D6008230D7006E260030F9272000A71D6F
:100A600008002E0803193D2D0930D8005808AB00A6
:100A70004908D8005808AD00422D0730D800580862
:100A8000AB002727DF270800882768302000D10027
:100A9000E430D000D00B4A2DD10B4A2D0000383065
:100AA000952539309525143095257030952556308B
:100AB00095256C30952503302000D2000830D100F8
:100AC0007830D000D00B622DD10B622DD20B622D6D
:100AD000383095250C30952506309525DF27080000
:100AE00020002E0803197A2DFB262F302000DA0073
:100AF00000307D2D6B08DA008230DB005430D400EA
:100B00008230D5005B08D701D7075A08D601D6072F
:100B10006E2608302000D8005808D0002E08D900D2
:100B20005908D1000B30CF2608002000CB003E3002
:100B3000F4000030F5000030F6000030F700F72533
:100B400075082000CD01CD077408CC01CC074D08F5
:100B50004C04031DB02D8030642720004B0864270F
:100B6000DD2111302000CA00CA0BB42D080020007E
:100B7000D200D301D4015408803AFF0080307F02B4
:100B8000031DC42D0730530203180800200052082B
:100B90008600870101087B2464270130F80078086B
:100BA0002000D2070130D3070030D43DBB2D0530E3
:100BB000C621240096140530C62101302000A00073
:100BC0000030A10074357607240091002000210830
:100BD0002004031DE62D2400160E890C890C013912
:100BE000F800F9017808F4007908F50008000530EC
:100BF000C621240016140530C62101302000A000B3
:100C00000030A100743576072400910020002108EF
:100C10002004031D062E2400160E890C890C0139B0
:100C2000F800F9017808F4007908F500080041306F
:100C300071222F302000DA005A08D50041303B20C5
:100C40002F302000D4000030D5003830D6000030DE
:100C5000D7006E262000D001D00A4708DA005A08D3
:100C6000D1000730CF26080063302000D800580894
:100C7000F20001303C272000D9005908ED00B826C9
:100C800060302000D4008230D5002F30D6000030F4
:100C9000D7006E260130F9272000D0010B30B52790
:100CA0000800F601F701721C592E7408F607750842
:100CB000F73D0130F435F50D890B5A2E0130F3362E
:100CC000F20C890B5F2E73087204031D532E7708F4
:100CD000F301F3077608F201F20708002000CE01C5
:100CE0000030512720005508CB01CB075408CA011A
:100CF000CA07E5242000CE01CE0A0030512720008B
:100D00005708CB01CB075608CA01CA07E524E521DD
:100D10000800F4007408F2000430F236890B8D2EBE
:100D20007208F3007308F5000F307405F2007508BF
:100D3000F3000330F335890B9A2E7535730772076C
:100D40000800B8266D302000D4008230D5002F3046
:100D5000D6000030D7006E260C302000D80058088E
:100D6000D0006D08D9005908D1000030CF26080006
:100D70002000D2012F30D5005508D3006D08B324D0
:100D800073302000D5005508B1006530D5005508F6
:100D9000B2006330D5005508B300B401080020004C
:100DA000D300271ED92E5308D2005208AB00DF27EC
:100DB0000800A61D08005008D2005208AB005108D8
:100DC000D2005208AD00DF2708005130F400003097
:100DD000F5000030F6000030F700D7250130642719
:100DE00020002C080238F739CA004A08AC002C0849
:100DF0006427DD2108002000D2012F30D5005508DE
:100E0000D3004908B3243A302000D5005508D20059
:100E10003130D6005608D3004808B3242000B4016E
:100E200008000530C621240096150430C621240090
:100E30001108F6007608F7000530C6217408240072
:100E4000031D9616031996121616770808005130DE
:100E5000F4000030F5000030F6000030F700F72510
:100E60000130642720002C08F539CA004A08AC007C
:100E70002C086427DD210800F4007A0820002704EC
:100E8000F300731E472F0130F3007308AD072D08E0
:100E9000720203184F2F7408F3007308AD002D0879
:100EA00008002000D3006A08D2006908D100680851
:100EB000D0006708CF004E354F3E860087010108FD
:100EC0005307803895250800F4000530C62101300D
:100ED0002000A0000030A100740824009100200030
:100EE00021082004031D6F2F240016080800F500B8
:100EF000F401751C7F2F7208F3007308F4070310C8
:100F0000F20D0310F50CF508031D792F7408080085
:100F10008030240094002830950013309200210086
:100F2000911592150B178B17200091119211080043
:100F30002000911DA32F013020062104031DA22FA4
:100F4000A001A1019111921D080092110800003426
:100F5000003400341134003403340E3400340034CF
:100F600040340034693465340A342000D200A71DAF
:100F700008005208D1005108AB005008D1005108B8
:100F8000AD00DF2708000B30F4002630F300663098
:100F9000F200F20BC92FF30BC92FF40BC92FD02F7E
:100FA000080020002808FF3A0319DA2F0130F0006A
:100FB0007008A8070130A2070030A33D08000130E7
:100FC000952503302000CF00DA30CE00CE0BE62F7F
:100FD000CF0BE62F00000800F3007308F200720840
:100FE0002000EE00FB01A901A701A601FA01A8015A
:100FF00008002000D700D401D40A5708BB210800FC
:020000040001F9
:08000000FF3FFF3FFF3FFF3F00
:04000E0084CDFFDAC4
:00000001FF
